:04180000C3EF17F02B
:08180800056ED8CF06F0E0CF19
:1018100007F00001E9CF0DF0EACF08F0E1CF09F0C1
:10182000E2CF0AF0D9CF0BF0DACF0CF0F3CF14F0FF
:10183000F4CF15F0FACF16F000C00FF001C010F091
:1018400002C011F003C012F004C013F09DAA2CEFE7
:101850000CF09EBA46EF15F0A0AA32EF0CF0A1BA38
:101860000BEF15F00FC000F010C001F011C002F036
:1018700012C003F013C004F00DC0E9FF08C0EAFF76
:10188000088E09C0E1FF0AC0E2FF0BC0D9FF0CC0FF
:10189000DAFF14C0F3FF15C0F4FF16C0FAFF0550BD
:1018A00007C0E0FF06C0D8FF1000F76ABA0FF66E57
:1018B000180EF7220900F5501200000302FFFFFF87
:1018C000FFFFFFFFFFFFFFFFFFFFF76ADA0FF66E74
:1018D000180EF7220900F550120000FF02FFFFFF6B
:1018E000FFFFFFFFFFFFFFFFFFFFF76AFA0FF66E34
:1018F000180EF7220900F5501200400008004000C1
:1019000000000000000000000000000000000000D7
:101910000000000000000000000008AE03D0F2CF7D
:101920000EF0F29EF76A3C0FF66E190EF7220900D0
:10193000F55008AE02D00EBEF28E1200400000003C
:101940004000000000000000000000000000000057
:10195000000000000000000000000000F76A6C0FAB
:10196000F66E190EF7220900F55012000902430025
:10197000020100C032090400000102020100052436
:1019800000100104240202052406000105240100C0
:1019900001070581030800FA09040100020A00009A
:1019A00000070502024000FA070582024000FA0023
:1019B000F76AC00FF66E190EF7220900F5501200F3
:1019C0000200F76AD20FF66E190EF7220900F550E1
:1019D0001200120017001B002000FFFFFFFFFFFF97
:1019E000FFFFF76AF20FF66E190EF7220900F550A5
:1019F00012001201100102000040D8040100000191
:101A000001020001F76A140FF66E1A0EF7220900A0
:101A1000F5501200040309040A0341005500520066
:101A200045002803410075007200650042006F0008
:101A300061007200640020005500730062002D00F8
:101A400053006500720069006500F2CF0EF0F29E4F
:101A5000F76A640FF66E1A0EF7220900F5500EBEF3
:101A6000F28E12000D0A41555245424F540D0A5F45
:101A70005F5F5F5F5F5F0D0A0D0A496E69636961B1
:101A80006E646F2E2E2E0D0A0000F2CF0EF0F29E25
:101A9000F76AA40FF66E1A0EF7220900F5500EBE73
:101AA000F28E12005B44656C617920333030206D1A
:101AB000735D0D0A0000F2CF0EF0F29EF76AD00FB0
:101AC000F66E1A0EF7220900F5500EBEF28E1200C5
:101AD0005B4F6B5D0D0A0000F2CF0EF0F29EF76ACD
:101AE000F20FF66E1A0EF7220900F5500EBEF28EB6
:101AF00012002D4C65642056657264650D0A000065
:101B0000F2CF0EF0F29EF76A1A0FF66E1B0EF72256
:101B10000900F5500EBEF28E12002D55534220439F
:101B200044430D0A0000F2CF0EF0F29EF76A400F18
:101B3000F66E1B0EF7220900F5500EBEF28E120053
:101B40002D50756C6C2075702773204F46460D0A1A
:101B50000000F2CF0EF0F29EF76A6C0FF66E1B0ECD
:101B6000F7220900F5500EBEF28E12002D496E7458
:101B7000657272757063696F6E2053455249450DE9
:101B80000A00F2CF0EF0F29EF76A9C0FF66E1B0E63
:101B9000F7220900F5500EBEF28E12002D496E7428
:101BA000657272757063696F6E657320676C6F62C2
:101BB000616C65730D0A0000F2CF0EF0F29EF76AB9
:101BC000D20FF66E1B0EF7220900F5500EBEF28EF4
:101BD0001200A14C69737461210D0A0D0A00F2CF45
:101BE0000EF0F29EF76AF80FF66E1B0EF722090050
:101BF000F5500EBEF28E1200280C01066D9269940B
:101C000068A402D06894FCD716EF15F0400E0401CA
:101C1000016F040E036F180E026F880E006F046BC5
:101C2000040E076F580E066F0001000C70A002D062
:101C3000EDDF7090689A1FEF15F06A6A689225EFE1
:101C400015F0B451B603F3CF01F0F4CF00F0B703B1
:101C5000F3500026B551B603F3500020026E000C7D
:101C6000036AAE51700FE96E0F0E0320EA6EEF6A41
:101C7000B56BAEC0B4F0B76B080EB66FE2DF01C053
:101C8000E9FF040E0224EA6EEF6AB56BAEC0B4F051
:101C9000B76B080EB66FD5DF02C0B0F001C0AFF071
:101CA000040EAF27000EB023AFC0E9FF040EB0252D
:101CB000EA6EEF6A000C010EAD6FAD510F0805E33F
:101CC000ADC0AEF0CDDFAD2BF8D7000C2B6A2A6A81
:101CD000250E296E800E286E2C6A2D6A080E2E6E37
:101CE0007E6B7993306A2F6A7A6B7B917981000CD5
:101CF000A36BA35101080AE3036AA351260FE96EFF
:101D0000000E0320EA6EEF6AA32BF3D7DFDF1A6A17
:101D1000010E1B6E196A000C689600D000D000D02E
:101D2000000C6A6A686A9F0E6B6E3D0E696E6E6A81
:101D3000C2DFDEDF160E706E68A602D0EDDFFCD7C4
:101D40006D9864DF030E206E2BEF15F069846898A0
:101D50006D8231EF15F0689C37EF15F0A8C021F0C7
:101D6000000CFF0E216E000CA66B245237E0A6512A
:101D70003F0834E31C5005E0020A0DE0010A15E0BB
:101D80001ED0036A2350F2CFA8F0F29EE7DDA8BF71
:101D9000F28EA76F14D0036A2350F2CFA8F0F29E00
:101DA00031DEA8BFF28EA76F0AD0036A2350F2CFAC
:101DB000A8F0F29E16DEA8BFF28EA76F00D0232AED
:101DC0002406A651A62B580F036AD8B0032AE96E41
:101DD000040E0324EA6EA7C0EFFFC7D7245204E124
:101DE000A651400801E0196AA6C0A8F0B7DF000CB0
:101DF000236A1C6A04011B51010A000107E0030A5F
:101E00000AE0010A0BE0220A20E03ED0120E246E06
:101E1000030E1C6E3BD0430E246E38D0020E1C6E97
:101E2000036A04011A511D0FE96E000E0320EA6EC9
:101E3000EFCF23F0036A2350F2CFA5F0F29E00010A
:101E4000E1DDA5BFF28E246E21D0D89004011A35B1
:101E5000036AF2CFA5F0F29E0001B3DD0900F5CFD1
:101E600003F0A5BFF28E236E233C01D00BD0036A92
:101E70002350F2CFA5F0F29E71DDA5BFF28E246E45
:101E800005D002D06EDF0ED06CDF0CD004011F53E2
:101E900005E124501E5D02E21EC424F0010E196EFD
:101EA000000162DF93EF10F0A55304E1040E206EF1
:101EB00002DFE7D0050E206E040EA86F980EA76F04
:101EC000010EA66FA6510F08D8A0DBD0A6C0AEF0B9
:101ED000C7DEA96B036AA651F2CFADF0F29EF5DC26
:101EE000ADBFF28EFF0863E0040EA96FD890A6354F
:101EF000036AF2CFADF0F29E10DD0900F5CF03F0DA
:101F0000ADBFF28EAA6F03C0ABF0B56BA6C0B4F044
:101F1000B76B080EB66F95DE01C0ADF0010E01245F
:101F2000016E000E0220036E01C0E9FF040E0324BF
:101F3000EA6EAAC0EFFFB56BA6C0B4F0B76B080E8F
:101F4000B66F7FDE01C0ADF0020E0124016E000EFF
:101F50000220036E01C0E9FF040E0324EA6EA8C04C
:101F6000ECFFED52A7C0EFFFD890A635036AF2CF81
:101F7000ADF0F29ED2DC0900F5CF03F0ADBFF28EDA
:101F8000A7270350A823880EAC6FABB1AC81ABB3CD
:101F9000AC83B56BA6C0B4F0B76B080EB66F51DE5C
:101FA00001C0E9FF040E0224EA6EACC0EFFF036A31
:101FB000A651F2CFADF0F29E78DCADBFF28EFF08F5
:101FC00045E0A983B56BA6C0B4F0B76B080EB66F39
:101FD00038DE02C0AEF001C0ADF0040EAD27000E39
:101FE000AE23020EAD25016E000EAE21036E01C0C0
:101FF000E9FF040E0324EA6EA8C0ECFFED52A7C06F
:10200000EFFFD890A635036AF2CFADF0F29E6DDCFB
:102010000900F5CF03F0ADBFF28EA7270350A82328
:10202000B56BA6C0B4F0B76B080EB66F0ADE02C07F
:10203000AEF001C0ADF0040EAD27000EAE23ADC072
:10204000E9FF040EAE25EA6E400EEF6EA9510608B8
:1020500002E10E0EA96F036AA651F2CFADF0F29E17
:1020600024DCADBFF28E0108D8A4A989036AA65169
:10207000700FE96E0F0E0320EA6EA9C0EFFFA62BCA
:1020800021D78DEF10F00401195100010DE0010A74
:1020900014E0020A1EE0060A27E0030A2CE00E0AFA
:1020A0002CE0010A30E03DD01BC058F40401596B0C
:1020B000020E0001A86F52DE36D004011A2D06D0A0
:1020C000010E1B160001A86B49DE02D0000149DE9B
:1020D0002AD004011A2D05D01B820001A86B3EDE18
:1020E00002D000013EDE1FD0020E196E1AC422F08B
:1020F000A86B34DE18D07CD616D01AC058F4010E66
:10210000A86F2CDE10D004011A51010808E31AC48C
:102110001AF01AC4A5F00001C7D6A86B1FDE000193
:1021200002D01FDE00D032EF12F01AC0A5F0040179
:102130001951000105E00A0A0BE0010A2BE03CD02E
:102140000401586B596B020E0001A86F07DE36D0F0
:10215000A5531EE0010EA55D036AF2CFA6F0F29E24
:1021600027DCA6BFF28E016E04011C5DD8A002D050
:1021700000010ED0036A1C51260FE96E000E0320E9
:10218000EA6EEFCF58F4010E0001A86FE7DD01D031
:10219000E8DD14D0A5530EE0036A04011C51260F9C
:1021A000E96E000E0320EA6E1AC4EFFF0001A86B6F
:1021B000D5DD01D0D6DD02D0D4DD00D032EF12F073
:1021C000A691A5BFA681A59FA6A111D0036AA5517E
:1021D000F2CFA7F0F29E55EC0CF0A7BFF28EFF08ED
:1021E00002E1000E01D0010E016E11D010D0036A81
:1021F000A551F2CFA7F0F29E65EC0CF0A7BFF28ECE
:10220000FF0802E1000E01D0010E016E00D09AEF2E
:1022100011F0A691A5BFA681A59FA6A117D0B56B69
:10222000A5C0B4F0B76B080EB66F0BDD02C0A8F006
:1022300001C0A7F0040EA727000EA823A7C0E9FF3E
:10224000040EA825EA6E880EEF6E0DD0B56BA5C002
:10225000B4F0B76B080EB66FF4DC01C0E9FF040EF2
:102260000224EA6EEF6AA9EF11F0A691A5BFA6813C
:10227000A59FA6A117D0B56BA5C0B4F0B76B080E8B
:10228000B66FDFDC02C0A8F001C0A7F0040EA727DC
:10229000000EA823A7C0E9FF040EA825EA6E840E4D
:1022A000EF6E0ED0B56BA5C0B4F0B76B080EB66F6D
:1022B000C8DC01C0E9FF040E0224EA6E840EEF6E52
:1022C000AFEF11F0A691A5BFA681A59FA6A117D03B
:1022D000B56BA5C0B4F0B76B080EB66FB2DC02C028
:1022E000A9F001C0A8F0040EA827000EA923A8C0D9
:1022F000E9FF040EA925EA6EEFCFA7F00ED0B56B6B
:10230000A5C0B4F0B76B080EB66F9BDC01C0E9FF47
:10231000040E0224EA6EEFCFA7F0A7AF02D0A7B554
:1023200002D0000E01D0010E016EB9EF11F01CC4F5
:10233000A5F046D7015229E004011951010A000114
:1023400005E0020A09E0030A0DE01DD01CC4A5F057
:1023500060D7A86B03DD19D01CC4A5F086D7A86B85
:10236000FDDC13D00401586B596B1CC4A5F00001AF
:10237000A9D7015204E0010E0401586F0001020EBA
:10238000A86FECDC02D0EDDC00D032EF12F0FE0ED4
:10239000216E000C04011C2D01D002D01C5348E119
:1023A000195100010BE0010A0DE0210A1CE0010AAD
:1023B0001FE0030A2EE0010A31E037D0010E7F6FE3
:1023C000E6DF35D0040EEA6E580EE96EE26A310E91
:1023D000E16E080E016EE6CFEEFF012EFCD71EC4A3
:1023E000A8F0BCDC24D0020E7F6F7983D0DF1FD031
:1023F000040EEA6E580EE96EE26A280EE16E070ED0
:10240000016EE6CFEEFF012EFCD7070EA86FA6DC0B
:102410000ED01AC47EF0A86BA1DC09D01AC430F02B
:102420001BC42FF0A86B9ADC02D09BDC00D0040107
:10243000000132EF12F0196A040118517F0B0001FC
:1024400007E0010A07E0030A07E0230A07E008D0D3
:102450001AD608D06AD606D06AD704D09BD702D045
:1024600080DC00D059EF14F0B56BA5C0B4F0B76BA9
:10247000080EB66F21EC0EF001C0E9FF040E022435
:10248000EA6EEFCFA7F0A651020806E1A7AD02D091
:10249000A66B02D0010EA66FA65103081AE1840EA6
:1024A000A76FB56BA5C0B4F0B76B080EB66F21EC83
:1024B0000EF002C0ABF001C0AAF0040EAA27000E75
:1024C000AB23AAC0E9FF040EAB25EA6E840EEF6EC3
:1024D00007D0A62D03D0C80EA76F02D0880EA76F15
:1024E000D890A535036AF2CFAAF0F29E8DEC0CF0DD
:1024F0000900F5CF03F0AABFF28EA86F03C0A9F0C0
:10250000B56BA5C0B4F0B76B080EB66F21EC0EF03A
:1025100001C0AAF0010E0124016E000E0220036E1C
:1025200001C0E9FF040E0324EA6EA8C0EFFFA9B1C1
:10253000A781A9B3A783B56BA5C0B4F0B76B080E8C
:10254000B66F21EC0EF001C0E9FF040E0224EA6E22
:10255000A7C0EFFF000C036AB351700FE96E0F0EB6
:102560000320EA6EEF5219E0B56BB3C0B4F0B76B5D
:10257000080EB66F21EC0EF002C0B5F001C0B4F049
:10258000040EB427000EB523B4C0E9FF040EB52530
:10259000EA6EEFCFB4F0B4AF02D0000E01D0010E5E
:1025A000016E000CAEC0B3F0D6DF0152D8B47CD0BF
:1025B000B56BAEC0B4F0B76B080EB66F21EC0EF081
:1025C00002C0B4F001C0B3F0040EB327000EB42370
:1025D000010EB325016E000EB421036E01C0E9FFA8
:1025E000040E0324EA6EAFC0EFFFB15102081EE1F2
:1025F000B56BAEC0B4F0B76B080EB66F21EC0EF041
:1026000002C0B4F001C0B3F0040EB327000EB4232F
:10261000B3C0E9FF040EB425EA6EEFCFB2F0B2AD5D
:1026200002D0B16B02D0010EB16F18D0B1510408C5
:1026300015E1B56BAEC0B4F0B76B080EB66F21EC08
:102640000EF001C0E9FF040E0224EA6EEFCFB2F0F3
:10265000B2AD03D0010EB16F01D0B16BB12D03D07B
:10266000C80EB26F02D0880EB26FB0B1B281B0B3F3
:10267000B283B56BAEC0B4F0B76B080EB66F21EC89
:102680000EF002C0B4F001C0B3F0040EB327000E88
:10269000B423B3C0E9FF040EB425EA6EB2C0EFFF65
:1026A000010E016E03D000D0000E016E000C7F51B0
:1026B000010A03E0030A13E024D0EA6A310EE96E4E
:1026C000040EE26E180EE16E080E016EE6CFEEFF0C
:1026D000012EFCD7A86BAEEC0EF07F6B16D0EA6A29
:1026E000280EE96E040EE26E180EE16E070E016E02
:1026F000E6CFEEFF012EFCD77F6BA86BAEEC0EF0A1
:1027000004D07F6B06EC0EF000D0B1EF13F0B56B88
:10271000A6C0B4F0B76B080EB66F21EC0EF002C085
:10272000A8F001C0A7F0010E0124016E000E0220E6
:10273000036E01C0E9FF040E0324EA6E036AEFCFC3
:1027400001F003C002F0AAEF13F07B817D6B020E53
:10275000A66FDDD701C07CF0B6EF13F0A55302E100
:10276000A6D704D0A551020801E1EFD7000CA6C0FE
:102770006EFFA65303E0040E206E02D0020E206E00
:10278000C7EF13F01A6A196A22C0A6F0F0D739EF22
:1027900014F0A6C0B3F0DFDE015246E0B56BA6C070
:1027A000B4F0B76B080EB66F21EC0EF002C0AFF0BC
:1027B00001C0AEF0040EAE27000EAF23020EAE2510
:1027C000016E000EAF21036E01C0E9FF040E032469
:1027D000EA6EECCF03F0ED52EFCFACF003C0ADF0FA
:1027E000ADC0EAFFACC0E9FFA8C0E2FFA7C0E1FFAF
:1027F000AAC002F0A9C001F0015202E0022A02D0F0
:10280000025206E0E6CFEEFF012EFCD7022EFAD7E9
:10281000A6C0AEF0AAC0B0F0A9C0AFF0ABC0B1F096
:10282000C1DE015003D000D0000E016E000C7A53BF
:102830000DE07991020EA66FA86B390EA76FAA6BF7
:102840007AC0A9F0020EAB6FA4DF7A6B000C7A534A
:1028500002E0EDDF01D079813EEF14F0A5530AE1EB
:10286000192C03D0B4EC0EF004D01950020801E189
:1028700089D704D0A551020801E1E9D7000C6C30DA
:10288000A36FA333A3331F0EA3176C5240E10401BF
:1028900000513C0B0001A46F430E0401001700011E
:1028A0008CEC0EF0A45134081BE10401046B000110
:1028B000C2D56D98213C05D0A56B030EA66FD4DD63
:1028C0000ED0A56B020EA66FCFDD2150FE0807E0EB
:1028D000AE6BB06B21C0AFF0040EB16F63DE16D0EB
:1028E000A451040813E1A56B39DFA56B020EA66F96
:1028F000BBDD2150FE080AE0213C01D007D0AE6BC1
:10290000B06B21C0AFF0010EB16F4CDE82D06C50C5
:10291000040818E1430E0401041700018CEC0EF0CA
:10292000FF0E216EA56B9ADF213C01D008D0AE6B63
:10293000B06B21C0AFF0020EB16F34DE02D006ECF6
:102940000EF067D06CB42CD0B56BA3C0B4F0B76BED
:10295000080EB66F21EC0EF001C0A5F001C001F029
:10296000040E0224036E01C0A5F0A66FB56BA3C0D0
:10297000B4F0B76B080EB66F21EC0EF001C0E9FFA2
:10298000040E0224EA6EEF50430BA6C0EAFFA5C076
:10299000E9FFEF6E8CEC0EF0A3C0A5F0DFDE39D0BE
:1029A000B56BA3C0B4F0B76B080EB66F21EC0EF098
:1029B00002C0A6F001C0A5F0040EA527000EA623B4
:1029C000A5C001F0040EA625036EA5C0A5F0A66F54
:1029D000B56BA3C0B4F0B76B080EB66F21EC0EF068
:1029E00002C0A8F001C0A7F0040EA727000EA8237C
:1029F000A7C0E9FF040EA825EA6EEF50430BA6C05E
:102A0000EAFFA5C0E9FFEF6E8CEC0EF0A3C0A5F0C5
:102A100025DF3DEF15F0205201E135D0685233E05B
:102A200068A404D069A402D0FEEF0DF06DA201D01D
:102A30002AD068AA04D069AA02D016EF0EF068A2C4
:102A400004D069A202D01DEF0EF068A004D069A0E6
:102A500002D091EF0EF068A804D069A802D0A6EFCA
:102A60000EF068AC04D069AC02D0ABEF0EF0A26BF4
:102A700068A604D069A602D002D701D004D0A25122
:102A8000A22B0308F5E2A19A32EF0CF09EAAFED722
:102A9000AECFA2F0A2530BE0A23D01D008D0949497
:102AA0008B74A2C080F0A2511B08D8B4FF009E9A7C
:102AB00032EF0CF09EA8FED7AD6E000CEA6A8F0EC6
:102AC000E96EEF500EE00F0E016E006A002EFED789
:102AD000012EFBD78F0E006E002EFED70000EF2ECA
:102AE000F2D7000C8C6B8D6B8D5125EC0DF08D2B7E
:102AF000E1DF240E8D5DF8E18D6B8D5145EC0DF01D
:102B00008D2BD8DF100E8D5DF8E1020E8D6F960EC5
:102B10008F6FD4DF8D2FFBD78D6B8D515BEC0DF05C
:102B20008D2BC8DF060E8D5DF8E18C6B8C5109088A
:102B300007E394948B74320E8F6FC0DF8C2BF6D723
:102B40008D6B8D516CEC0DF08D2BB4DF0C0E8D5D0B
:102B5000F8E18D6B8D5180EC0DF08D2BABDF0A0E03
:102B60008D5DF8E1F18E8D6B8D5193EC0DF08D2B19
:102B7000A1DF100E8D5DF8E1C150C00B0F09C16ED1
:102B80009D8A8D6B8D51A9EC0DF08D2B93DF150E69
:102B90008D5DF8E1C00EF2128D6B8D51C1EC0DF020
:102BA0008D2B88DF1A0E8D5DF8E18D6B8D51DCEC7D
:102BB0000DF08D2B7FDF0B0E8D5DF8E1E2EF17F04E
:102BC00096B102D08A9A01D08A8A939A96B302D09B
:102BD0008A9801D08A88939896B502D08A9601D0B7
:102BE0008A86939696B702D08A9401D08A84939469
:102BF000030E006E002EFED700D0939C8A8C070E29
:102C0000006E002EFED700D0939C8A9C000C939EF1
:102C10008A9EEF0E006E002EFED700D0935303E085
:102C2000939E8A8E02D0939E8A9E0000939C8A9CDB
:102C30009439956F0F0E951795C096F0C1DF94519A
:102C40000F0B956F966FBCDF000C939E8A9E939C32
:102C50008A9C0F0E8F6F32DF8C6B8C51020808E359
:102C6000030E966FADDF050E8F6F28DF8C2BF5D727
:102C7000020E966FA5DF8C6B8C51030812E3036A7A
:102C80008C51F2CF8DF0F29EEFEC0DF08DBFF28EF5
:102C90008D6F936B946FBBDF050E8F6F0FDF8C2BE7
:102CA000EBD75EEF16F0D8908C350C098D118E6F36
:102CB000936B946FACDF61EF16F0C7D78C6B8D6BA5
:102CC000F2D7E3EF17F06D6A696A080E6F6E9450E1
:102CD0003009946E206A186AF2BE188EF29E78EC63
:102CE0000EF018BEF28E76EF16F0EDD79BEF16F0D1
:102CF000186AF2BE188EF29E78EC0EF018BEF28EB4
:102D00006D6A140E6F6E696A6D86010E206E8CEF0F
:102D100016F06DB601D0ECD7202C0BD06DBA09D0CF
:102D2000686A696AA08AC00EF212110E696E020EFC
:102D3000206E000CDAD7EDDF20500208FCE1000C19
:102D400066EC0EF0F7DFE4EF17F01A50016EACEF0F
:102D500016F079A306D0F9D7015203E0010E016EF7
:102D600002D0000E016EF3EF17F07BB101D0FDD75A
:102D70007D517D2B036A880FE96E050E0320EA6EF4
:102D8000EFCF8DF07C517D5D0CE37B91186AF2BE34
:102D9000188EF29E020EA56FA66F34EC12F018BECC
:102DA000F28E8DC001F0D6EF16F0DFD701C08CF0A7
:102DB0008C530BE08C3D01D008D094948B748CC064
:102DC00080F08C511B08D8B4FF008CEF17F08C9C5E
:102DD000959C8C8E959E8C9895988C8A959A000CD3
:102DE0008C8C959C8C9E959E8C8895988C9A959AA7
:102DF000000C8C8C959C8C9E959E8C9895988C8ABA
:102E0000959A000C8C9C959C8C8E959E8C889598A0
:102E10008C9A959A000C8C9C959C8C9E959E8C9877
:102E200095988C9A959A000C8E91F2BE8E81F29EA6
:102E30007A513F0802E23F0E7A6F7A517A2B036A89
:102E4000390FE96E000E0320EA6E8DC0EFFFF29E8F
:102E50008EB1F28E79A107D0186AF2BE188EF29E5A
:102E6000E6DC18BEF28E45EF17F07A513F080AE211
:102E700079A107D0186AF2BE188EF29ED8DC18BE6F
:102E8000F28EF3D78CC08DF0CFD7000C94948B7456
:102E90008051770A13E0200A13E0240A13E0200A85
:102EA00013E0370A13E0200A13E0250A13E0200A92
:102EB00013E0300A13E0200A13E014D088DF25D095
:102EC00086DF23D08DDF21D08BDF1FD092DF1DD096
:102ED00090DF1BD097DF19D095DF17D09CDF15D07E
:102EE0009ADF13D04E0E8C6FC0DF520E8C6FBDDF99
:102EF0003A0E8C6FBADF80C08CF0B7DF0D0E8C6F8E
:102F0000B4DF0A0E8C6FB1DF00D0806B8FEF17F04B
:102F100000DF7BA104D049D7805301E0B7D7000C74
:102F2000902D01D003D0400E916F01D0916B010E16
:102F30008F5D912791518009926F936B946F67DE3B
:102F4000000C8E510C0A05E0010A0BE0050A0FE0A7
:102F500013D0936B010E946F5ADE020E8F6FAEDDAD
:102F600011D0010E8F6F020E906FDADF0BD0936BD2
:102F7000100E946F4CDE06D0010E936F8EC094F04D
:102F800046DE00D0000CF86AD09E088EEA6AE96A34
:102F9000B886E10EAF6E040EB06EA60EAC6E900E4B
:102FA000AB6EC150C00B0F09C16E070EB46E1D6A27
:102FB000040E1E6E0E0E1F6E206A246A7A6B7F6BE3
:102FC000806B90D57AD6BCD6846B845131080AE3E5
:102FD000640E8F6F73DD928880A802D0640E846FB8
:102FE000842BF3D7B6D6012C09D0928880B802D0B2
:102FF0008FDFFBD78DDF8CDFFED783D0928880B840
:1030000001D0FCD7929089809282826B80B2822B11
:103010009284836B80B4832B66EC0EF08BDE020E01
:103020008F6F010E906F7CDFEA6A82C0E9FF000EAD
:10303000EF100FE0EACF8DF0E9CF8CF0EFCF8EF0FC
:1030400080DF8DC0EAFF8CC0E9FFE92AD8B4EA2A04
:10305000EED7020E8F6F010E906F62DF020E8C6F43
:10306000FA0E8F6F2BDD8C2FFBD7200E8E6F69DF52
:1030700050DE79A301D042D0020E8C6FFA0E8F6F12
:103080001DDD8C2FFBD7020E8F6F010E906F48DF76
:10309000200E8E6F56DFBFDE928880B820D0020EE1
:1030A0008F6F010E906F3CDFEA6A83C0E9FF000E6C
:1030B000EF100FE0EACF8DF0E9CF8CF0EFCF8EF07C
:1030C00040DF8DC0EAFF8CC0E9FFE92AD8B4EA2AC4
:1030D000EED7020E8F6F010E906F22DFDDD7020E4A
:1030E0008F6F010E906F1CDF200E8E6F2ADF040E93
:1030F0008C6FFA0E8F6FE2DC8C2FFBD70ADEFED7C7
:04310000B7D703003A
:020000040030CA
:0E00000020C23E1E008381000FC00FE00F40A3
:00000001FF
;PIC18F4550
;CRC=E40C  CREATED="10-may-22 17:29"
