:041800000EEF18F0DF
:08180800046ED8CF05F0E0CF1B
:1018100006F00001E9CF0CF0EACF07F0E1CF08F0C5
:10182000E2CF09F0D9CF0AF0DACF0BF0F3CF12F004
:10183000F4CF13F0FACF14F0F5CF15F0F6CF16F081
:10184000F7CF17F000C00EF001C00FF002C010F08B
:1018500003C011F09DAA30EF0CF09EBA8BEF14F08C
:10186000A0AA36EF0CF0A1BAEBEF13F00EC000F017
:101870000FC001F010C002F011C003F00CC0E9FF6E
:1018800007C0EAFF078E08C0E1FF09C0E2FF0AC0F7
:10189000D9FF0BC0DAFF12C0F3FF13C0F4FF14C06E
:1018A000FAFF15C0F5FF16C0F6FF17C0F7FF04508A
:1018B00006C0E0FF05C0D8FF1000F76ACA0FF66E39
:1018C000180EF7220900F5501200000302FFFFFF77
:1018D000FFFFFFFFFFFFFFFFFFFFF76AEA0FF66E54
:1018E000180EF7220900F550120000FF02FFFFFF5B
:1018F000FFFFFFFFFFFFFFFFFFFFF76A0A0FF66E14
:10190000190EF7220900F5501200400008004000AF
:1019100000000000000000000000000000000000C7
:1019200000000000000000000000F76A3A0FF66EA9
:10193000190EF7220900F550120040000000400087
:101940000000000000000000000000000000000097
:1019500000000000000000000000F76A6A0FF66E49
:10196000190EF7220900F550120009024300020186
:1019700000C0320904000001020201000524001029
:1019800001042402020524060001052401000107C8
:101990000581030800FA09040100020A000000079B
:1019A0000502024000FA070582024000FA00F76AC9
:1019B000BE0FF66E190EF7220900F5501200020054
:1019C000F76AD00FF66E190EF7220900F5501200D3
:1019D000120017001B002000FFFFFFFFFFFFFFFFAB
:1019E000F76AF00FF66E190EF7220900F550120093
:1019F0001201100102000040D804010000010102A0
:101A00000001F76A120FF66E1A0EF7220900F55060
:101A10001200040309040A03410055005200450066
:101A20002803410075007200650042006F006100EC
:101A30007200640020005500730062002D00530006
:101A40006500720069006500F76A580FF66E1A0E9D
:101A5000F7220900F5501200280C01066D926994D6
:101A600068A402D06894FCD7F7EF13F0400E04018D
:101A7000016F040E036F180E026F880E006F046B67
:101A8000040E076F580E066F0001000C70A002D004
:101A9000EDDF7090689A00EF14F06A6A689206EFC2
:101AA00014F0A291A1BFA281A19FA151100803E24D
:101AB000000E016E17D0A2A10BD0036AA151FDDE6A
:101AC000FF0802E1000E01D0010E016E0BD00AD01A
:101AD000036AA15102DFFF0802E1000E01D0010EEE
:101AE000016E00D0000CA651A803F3CF01F0F4CF93
:101AF00000F0A903F3500026A751A803F3500020DB
:101B0000026E000C036AA051700FE96E0F0E0320E5
:101B1000EA6EEF6AA0C0A1F0C4DF015222E0A76B19
:101B2000A0C0A6F0A96B080EA86FDDDF01C0E9FF19
:101B3000040E0224EA6EEF6AA76BA0C0A6F0A96BA0
:101B4000080EA86FD0DF02C0A2F001C0A1F0040E01
:101B5000A127000EA223A1C0E9FF040EA225EA6E70
:101B6000EF6A000C010E9F6F9F510F0805E39FC0A5
:101B7000A0F0C8DF9F2BF8D7000C2D6A2C6A250E29
:101B80002B6E800E2A6E2E6A2F6A080E306E806BC6
:101B90007B93326A316A7C6B7D917B81000C956B03
:101BA000955101080AE3036A9551280FE96E000E6A
:101BB0000320EA6EEF6A952BF3D7DFDF1B6A010E75
:101BC0001C6E1A6A000C6896000C6A6A686A9F0E9E
:101BD0006B6E3D0E696E6E6AC5DFE1DF160E706ECC
:101BE00068A602D0F0DFFCD76D9840DF030E226EAE
:101BF0000CEF14F0698468986D8212EF14F0689C01
:101C000018EF14F09AC023F0000CFF0E236E000CA6
:101C1000986B275226E098513F0823E31D5005E0BA
:101C2000020A08E0010A0BE00FD0036A265095DE95
:101C3000996F0AD0036A2650E4DE996F05D0036AD3
:101C40002650CEDE996F00D0262A27069851982B71
:101C5000580FE96E040EEA6ED8B0EA2A99C0EFFF79
:101C6000D8D7275204E19851400801E01A6A98C079
:101C70009AF0C8DF000C266A1D6A04011B51010A94
:101C8000000107E0030A0AE0010A0BE0220A1BE058
:101C90002FD0120E276E030E1D6E2CD0430E276E12
:101CA00029D0020E1D6E036A04011A511E0FE96E3F
:101CB000000E0320EA6EEFCF26F0036A26500001E3
:101CC000A0DE276E17D0D89004011A35036A0001F0
:101CD00077DE0900F5CF03F0266E263C01D006D052
:101CE000036A26503ADE276E05D002D08EDF0ED072
:101CF0008CDF0CD004011F5305E127501E5D02E26A
:101D00001EC427F0010E1A6E000182DFAAEF0FF049
:101D1000975304E1040E226E25DFC9D0050E226E12
:101D2000040E9A6F980E996F010E986F98510F08D4
:101D3000D8A0BDD098C0A0F0E5DE9B6B036A985197
:101D4000CCDDFF0859E0040E9B6FD8909835036AEC
:101D5000ECDD0900F5CF03F09C6F03C09DF0A76B8D
:101D600098C0A6F0A96B080EA86FBDDE01C09FF059
:101D7000010E0124016E000E0220036E01C0E9FF76
:101D8000040E0324EA6E9CC0EFFFA76B98C0A6F078
:101D9000A96B080EA86FA7DE01C09FF0020E0124F8
:101DA000016E000E0220036E01C0E9FF040E032441
:101DB000EA6E9AC0ECFFED5299C0EFFFD8909835CB
:101DC000036AB3DD0900F5CF03F0992703509A2386
:101DD000880E9E6F9DB19E819DB39E83A76B98C018
:101DE000A6F0A96B080EA86F7EDE01C0E9FF040E05
:101DF0000224EA6E9EC0EFFF036A98515EDDFF0881
:101E000040E09B83A76B98C0A6F0A96B080EA86F53
:101E10006ADE02C0A0F001C09FF0040E9F27000EF2
:101E2000A023020E9F25016E000EA021036E01C0AB
:101E3000E9FF040E0324EA6E9AC0ECFFED5299C04C
:101E4000EFFFD8909835036A58DD0900F5CF03F00D
:101E5000992703509A23A76B98C0A6F0A96B080E88
:101E6000A86F41DE02C0A0F001C09FF0040E9F27C2
:101E7000000EA0239FC0E9FF040EA025EA6E400ECD
:101E8000EF6E9B51060802E10E0E9B6F036A98519C
:101E900014DD0108D8A49B89036A9851700FE96E7C
:101EA0000F0E0320EA6E9BC0EFFF982B3FD7A4EFE5
:101EB0000FF004011951000A00010DE0010A14E0BD
:101EC000020A1EE0060A27E0030A2CE00E0A2CE0B4
:101ED000010A30E03DD01CC058F40401596B020ED9
:101EE00000019A6F8FDE36D004011A2D06D0010E44
:101EF0001C1600019A6B86DE02D0000186DE2AD015
:101F000004011A2D05D01C8200019A6B7BDE02D0E1
:101F100000017BDE1FD0020E1A6E1AC424F09A6BE9
:101F200071DE18D0A8D616D01BC058F4010E9A6FD7
:101F300069DE10D004011A51010808E31AC41BF02D
:101F40001AC497F00001E4D69A6B5CDE000102D05F
:101F50005CDE00D01EEF11F01BC097F00401195198
:101F6000000A000105E00A0A0BE0010A26E037D06A
:101F70000401586B596B020E00019A6F43DE31D099
:101F8000975319E0010E975D036A11DD016E04019C
:101F90001C5DD8A002D000010ED0036A1C51280F8E
:101FA000E96E000E0320EA6EEFCF58F4010E000137
:101FB0009A6F28DE01D029DE14D097530EE0036A11
:101FC00004011C51280FE96E000E0320EA6E1AC4AA
:101FD000EFFF00019A6B16DE01D017DE02D015DE8E
:101FE00000D01EEF11F0989197BF9881979F98A10C
:101FF00017D0A76B97C0A6F0A96B080EA86F73DD6A
:1020000002C09AF001C099F0040E9927000E9A239D
:1020100099C0E9FF040E9A25EA6E880EEF6E0DD086
:10202000A76B97C0A6F0A96B080EA86F5CDD01C076
:10203000E9FF040E0224EA6EEF6A93EF10F0989124
:1020400097BF9881979F98A117D0A76B97C0A6F0CC
:10205000A96B080EA86F47DD02C09AF001C099F085
:10206000040E9927000E9A2399C0E9FF040E9A25C1
:10207000EA6E840EEF6E0ED0A76B97C0A6F0A96B28
:10208000080EA86F30DD01C0E9FF040E0224EA6EDD
:10209000840EEF6E99EF10F0989197BF9881979FFB
:1020A00098A117D0A76B97C0A6F0A96B080EA86FD0
:1020B0001ADD02C09BF001C09AF0040E9A27000EB0
:1020C0009B239AC0E9FF040E9B25EA6EEFCF99F09F
:1020D0000ED0A76B97C0A6F0A96B080EA86F03DD02
:1020E00001C0E9FF040E0224EA6EEFCF99F099AF28
:1020F00002D099B502D0000E01D0010E016EA3EFFF
:1021000010F01CC4A1F0CDDC015229E004011951EA
:10211000010A000105E0020A09E0030A0DE01DD0F2
:102120001CC497F060D79A6B6DDD19D01CC497F072
:1021300086D79A6B67DD13D00401586B596B1CC4AA
:1021400097F00001A9D7015204E0010E0401586F75
:102150000001020E9A6F56DD02D057DD00D01EEF4F
:1021600011F0FE0E236E000C04011C2D01D002D0D4
:102170001C5349E11951000A00010BE0010A0DE06E
:10218000210A1CE0010A1FE0030A2EE0010A31E0E7
:1021900037D0010E816FE5DF35D0040EEA6E580EA0
:1021A000E96EE26A330EE16E080E016EE6CFEEFFD5
:1021B000012EFCD71EC49AF025DD24D0020E816FBB
:1021C0007B83CFDF1FD0040EEA6E580EE96EE26A01
:1021D0002A0EE16E070E016EE6CFEEFF012EFCD750
:1021E000070E9A6F0FDD0ED01AC480F09A6B0ADDCD
:1021F00009D01AC432F01BC431F09A6B03DD02D04F
:1022000004DD00D0040100011EEF11F01A6A040180
:1022100018517F0B000A000107E0010A07E0030ADA
:1022200007E0230A07E008D044D608D095D606D0A8
:1022300068D704D099D702D0E8DC00D040EF13F083
:10224000A76B97C0A6F0A96B080EA86F4CDC01C065
:10225000E9FF040E0224EA6EEFCF99F098510208CC
:1022600006E199AD02D0986B02D0010E986F98519B
:10227000030819E1840E996FA76B97C0A6F0A96BAC
:10228000080EA86F30DC02C09DF001C09CF0040E67
:102290009C27000E9D239CC0E9FF040E9D25EA6E3D
:1022A000840EEF6E07D0982D03D0C80E996F02D020
:1022B000880E996FD8909735036A95EC0CF0090059
:1022C000F5CF03F09A6F03C09BF0A76B97C0A6F001
:1022D000A96B080EA86F07DC01C09CF0010E012459
:1022E000016E000E0220036E01C0E9FF040E0324FC
:1022F000EA6E9AC0EFFF9BB199819BB39983A76B5C
:1023000097C0A6F0A96B080EA86F73EC0DF001C082
:10231000E9FF040E0224EA6E99C0EFFF000C036A85
:10232000A551700FE96E0F0E0320EA6EEF5219E00F
:10233000A76BA5C0A6F0A96B080EA86F73EC0DF0F3
:1023400002C0A7F001C0A6F0040EA627000EA72326
:10235000A6C0E9FF040EA725EA6EEFCFA6F0A6AF50
:1023600002D0000E01D0010E016E000CA0C0A5F03D
:10237000D6DF0152D8B47CD0A76BA0C0A6F0A96B61
:10238000080EA86F73EC0DF002C0A6F001C0A5F016
:10239000040EA527000EA623010EA525016E000E32
:1023A000A621036E01C0E9FF040E0324EA6EA1C05A
:1023B000EFFFA35102081EE1A76BA0C0A6F0A96B16
:1023C000080EA86F73EC0DF002C0A6F001C0A5F0D6
:1023D000040EA527000EA623A5C0E9FF040EA6251E
:1023E000EA6EEFCFA4F0A4AD02D0A36B02D0010E31
:1023F000A36F18D0A351040815E1A76BA0C0A6F0E5
:10240000A96B080EA86F73EC0DF001C0E9FF040E74
:102410000224EA6EEFCFA4F0A4AD03D0010EA36FA7
:1024200001D0A36BA32D03D0C80EA46F02D0880ED9
:10243000A46FA2B1A481A2B3A483A76BA0C0A6F08D
:10244000A96B080EA86F73EC0DF002C0A6F001C0D6
:10245000A5F0040EA527000EA623A5C0E9FF040ED3
:10246000A625EA6EA4C0EFFF010E016E03D000D0D6
:10247000000E016E000C8151010A03E0030A13E013
:1024800024D0EA6A330EE96E040EE26E180EE16E95
:10249000080E016EE6CFEEFF012EFCD79A6B02EC20
:1024A0000EF0816B16D0EA6A2A0EE96E040EE26E17
:1024B000180EE16E070E016EE6CFEEFF012EFCD77F
:1024C000816B9A6B02EC0EF004D0816B36EC0DF050
:1024D00000D095EF12F0A76B98C0A6F0A96B080E7C
:1024E000A86F73EC0DF002C09AF001C099F0010ED4
:1024F0000124016E000E0220036E01C0E9FF040EEC
:102500000324EA6E036AEFCF01F003C002F08EEFFE
:1025100012F07D817F6B020E986FDDD701C07EF0D7
:102520009AEF12F0975302E1A6D704D09751020810
:1025300001E1EFD7000C98C06EFF985303E0040E42
:10254000226E02D0020E226EABEF12F01B6A1A6AE4
:1025500024C098F0F0D71FEF13F098C0A5F0DFDE8D
:10256000015246E0A76B98C0A6F0A96B080EA86FB1
:1025700073EC0DF002C0A1F001C0A0F0040EA02782
:10258000000EA123020EA025016E000EA121036EF4
:1025900001C0E9FF040E0324EA6EECCF03F0ED5214
:1025A000EFCF9EF003C09FF09FC0EAFF9EC0E9FFFF
:1025B0009AC0E2FF99C0E1FF9CC002F09BC001F00D
:1025C000015202E0022A02D0025206E0E6CFEEFFFC
:1025D000012EFCD7022EFAD798C0A0F09CC0A2F022
:1025E0009BC0A1F09DC0A3F0C1DE015003D000D07C
:1025F000000E016E0AEF13F07C530DE07B91020E8A
:10260000986F9A6B3B0E996F9C6B7CC09BF0020E8F
:102610009D6FA3D77C6B10EF13F07C5302E0ECD7D7
:1026200001D07B8124EF13F097530AE11A2C03D0D9
:1026300008EC0EF004D01A50020801E187D704D04C
:102640009751020801E1E9D7000C2130956F9533CD
:1026500095331F0E9517215242E1040100513C0BA6
:102660000001966F430E04010017000196513408D3
:102670001EE104010451800B01E0046B0001C6D58A
:102680006D98233C05D0976B030E986FD9DD0ED063
:10269000976B020E986FD4DD2350FE0807E0A06B05
:1026A000A26B23C0A1F0040EA36F60DE17D0965179
:1026B000040814E1976B36DF976B020E986FC0DD4C
:1026C0002350FE080AE0233C01D007D0A06BA26B88
:1026D00023C0A1F0010EA36F49DE00D07AD02150B3
:1026E000040814E1430E04010417FF0E236E0001D9
:1026F000976B9ADF233C01D008D0A06BA26B23C05C
:10270000A1F0020EA36F32DE00D063D021B42AD034
:10271000A76B95C0A6F0A96B080EA86F73EC0DF01F
:1027200001C097F001C001F0040E0224036E01C045
:1027300097F0986FA76B95C0A6F0A96B080EA86FCD
:1027400073EC0DF001C0E9FF040E0224EA6EEF50B5
:10275000430B98C0EAFF97C0E9FFEF6E95C097F072
:10276000E1DE37D0A76B95C0A6F0A96B080EA86F65
:1027700073EC0DF002C098F001C097F0040E97279B
:10278000000E982397C001F0040E9825036E97C0A1
:1027900097F0986FA76B95C0A6F0A96B080EA86F6D
:1027A00073EC0DF002C09AF001C099F0040E992765
:1027B000000E9A2399C0E9FF040E9A25EA6EEF50A5
:1027C000430B98C0EAFF97C0E9FFEF6E95C097F002
:1027D0002BDF22EF14F0A19A225201E139D0685286
:1027E00037E068A404D069A402D02EEF0DF06DA2EA
:1027F00001D02ED068AA04D069AA02D046EF0DF00D
:1028000068A204D069A202D04DEF0DF068A004D0F8
:1028100069A002D0E5EF0DF068A804D069A802D045
:10282000FAEF0DF068AC04D069AC02D0FFEF0DF008
:10283000946B68A608D069A606D06CCF21F0E3ECB3
:102840000DF003D701D004D09451942B0308F1E28A
:1028500036EF0CF00D0A0A2D41757265426F6172F8
:102860006420A14C69737461210D0A000D0A415561
:102870005245424F540D0A5F5F5F5F5F5F5F0D0A15
:102880000D0A496E696369616E646F2E2E2E0D0A02
:1028900000005B44656C617920333030206D735DDE
:1028A0000D0A00005B4F6B5D0D0A00002D4C656446
:1028B0002056657264650D0A00002D555342204371
:1028C00044430D0A00002D50756C6C207570277301
:1028D000204F46460D0A00002D496E7465727275D0
:1028E0007063696F6E2053455249450D0A002D49AA
:1028F0006E74657272757063696F6E657320676C54
:102900006F62616C65730D0A0000A14C697374619C
:10291000210D0A0D0A009EAAFED7AECF94F0945363
:102920000BE0943D01D008D094948B7494C082F055
:1029300094511B08D8B4FF009E9A36EF0CF0257313
:10294000207C20282575290D0A00436F6D70726F59
:1029500062616E646F206D6F746F7265732E2E2EC0
:102960000D0A0000094164656C616E74650D0A0012
:102970000941747261730D0A000009446572656350
:1029800068610D0A000009497A71756965726461B0
:102990000D0A00004D6F746F72657320636F6D7068
:1029A000726F6261646F730D0A0D0A002D4144431A
:1029B0000D0A00002D4C44527320636F6E666967E8
:1029C0007572616461730D0A0000436F6D70726F00
:1029D00062616E646F2073656E736F726573204CF5
:1029E00044522E2E2E0D0A00436F6E666967757273
:1029F000616E646F2E2E2E0D0A000953656E736F83
:102A000072206465726563686F3A0D0A00000953AD
:102A1000656E736F7220697A7175696572646F3A59
:102A20000D0A00002D4144430D0A00002D434E596C
:102A3000373020636F6E666967757261646F0D0A67
:102A40000000436F6D70726F62616E646F2062751B
:102A50006D706572732E2E2E0D0A000042756D701A
:102A6000657220697A7175696572646F3A202564B0
:102A70002042756D706572206465726563686F3A97
:102A80002025640D0A00496E696369616C697A6189
:102A90006E646F2E2E2E00004573706572616E6439
:102AA0006F2E2E2E0000546F646F2066756E636962
:102AB0006F6E616E646F20636F7272656374616DB7
:102AC000656E7465203A29005369676F20706173E1
:102AD00065616E646F203A290000202020202020AC
:102AE00020202020202020202020000043686F711B
:102AF00075652061206C6100697A71756965726421
:102B000061203A28000043686F7175652061206C70
:102B1000610064657265636861203A2800000900FD
:102B2000F5520DE0F6CF8AF0F7CF8BF0F5509EA866
:102B3000FED7AD6E8AC0F6FF8BC0F7FFF0D7000C52
:102B4000EA6A8C0EE96EEF500EE00F0E016E006A1D
:102B5000002EFED7012EFBD78F0E006E002EFED763
:102B60000000EF2EF2D7000C896B6C0EF66E280E6B
:102B7000F76ED5DF920EF66E280EF76ED0DF020EDE
:102B80008A6F960E8C6FDCDF8A2FFBD7A40EF66E51
:102B9000280EF76EC4DF896B8951090807E3949406
:102BA0008B74320E8C6FCCDF892BF6D7AC0EF66EA1
:102BB000280EF76EB4DFBA0EF66E280EF76EAFDF92
:102BC000F18EC60EF66E280EF76EA9DFC150C00B4F
:102BD0000F09C16E9D8AD80EF66E280EF76E9FDF24
:102BE000C00EF212EE0EF66E280EF76E98DF0A0E89
:102BF000F66E290EF76E93DF3AEF18F093B102D01C
:102C00008A9A01D08A8A939A93B302D08A9801D083
:102C10008A88939893B502D08A9601D08A86939633
:102C200093B702D08A9401D08A849394030E006EE5
:102C3000002EFED700D0939C8A8C070E006E002ECB
:102C4000FED700D0939C8A9C000C939E8A9EEF0E28
:102C5000006E002EFED700D0905303E0939E8A8E24
:102C600002D0939E8A9E0000939C8A9C9139926F19
:102C70000F0E921792C093F0C1DF91510F0B926F1C
:102C8000936FBCDF000C939E8A9E939C8A9C0F0ED0
:102C90008C6F56DF896B8951020808E3030E936F2E
:102CA000ADDF050E8C6F4CDF892BF5D7020E936FCD
:102CB000A5DF896B895103080DE3036A895124EC70
:102CC0000DF08A6F906B916FC0DF050E8C6F38DF4F
:102CD000892BF0D7000CD89089350C098A118B6F9D
:102CE000906B916FB2DF79EF16F0CDDF896B8A6B55
:102CF000F2D73BEF18F06D6A696A080E6F6E945058
:102D00003009946E226A196AF2BE198EF29ECFECD7
:102D10000DF019BEF28E8EEF16F0EDD7B4EF16F06F
:102D2000196AF2BE198EF29ECFEC0DF019BEF28E2A
:102D30006D6A140E6F6E696A6D86010E226EA4EFC5
:102D400016F06DB601D0ECD7222C0BD06DBA09D09D
:102D5000686A696AA08AC00EF212110E696E020ECC
:102D6000226EB5EF16F0D9D7ECD722500208FCE15D
:102D7000BDEF16F0BDEC0DF0F6D73CEF18F08D2D41
:102D800001D003D0400E8E6F01D08E6B010E8C5D92
:102D90008E278E5180098F6F906B916F56DF000CDC
:102DA0008B510C0A05E0010A0BE0050A0FE013D075
:102DB000906B010E916F49DF020E8C6FC1DE11D056
:102DC000010E8C6F020E8D6FDADF0BD0906B100E40
:102DD000916F3BDF06D0010E906F8BC091F035DF15
:102DE00000D0FDEF16F00900F5520CE0F6CF89F0A7
:102DF000F7CF8AF0F5CF8BF0D3D789C0F6FF8AC022
:102E0000F7FFF1D7000C63EF18F0896B89510508C3
:102E100007E3929A897AC80E8C6F92DE892BF6D7D7
:102E200064EF18F08C9C959C8C8E959E8C98959850
:102E30008C8A959A1DEF17F0F5D7896B8935006E4E
:102E40000036FC0E0016C250C30B0010C26EC282C8
:102E5000C2B2FED7C4CF89F089C001F001C083F0AF
:102E6000010E896F8935006E0036FC0E0016C250C7
:102E7000C30B0010C26EC282C2B2FED7C4CF89F0AB
:102E800089C001F001C084F0B4EF18F055EF17F0DD
:102E90008C8C959C8C9E959E8C8895988C9A959AF6
:102EA00056EF17F092968986F1D7F2D7896B89355C
:102EB000006E0036FC0E0016C250C30B0010C26E2E
:102EC000C282C2B2FED7C4CF89F089C001F001C06E
:102ED00083F0010E896F8935006E0036FC0E0016F6
:102EE000C250C30B0010C26EC282C2B2FED7C4CFA2
:102EF00089F089C001F001C084F0000C8C8C959C95
:102F00008C9E959E8C9895988C8A959A89EF17F04F
:102F1000F5D7896B8935006E0036FC0E0016C2505D
:102F2000C30B0010C26EC282C2B2FED7C4CF89F0FA
:102F300089C001F001C083F0010E896F8935006EF0
:102F40000036FC0E0016C250C30B0010C26EC282C7
:102F5000C2B2FED7C4CF89F089C001F001C084F0AD
:102F6000BDEF17F09FDF080E896FFA0E8C6FE8DD5A
:102F7000892FFBD792968996CBD7180E896FE10ED1
:102F80008C6FDEDD892FFBD7CEEF18F08C9C959CE3
:102F90008C8E959E8C8895988C9A959AD1EF17F087
:102FA000F5D7896B8935006E0036FC0E0016C250CD
:102FB000C30B0010C26EC282C2B2FED7C4CF89F06A
:102FC00089C001F001C083F0010E896F8935006E60
:102FD0000036FC0E0016C250C30B0010C26EC28237
:102FE000C2B2FED7C4CF89F089C001F001C084F01D
:102FF00005EF18F057DF080E896FFA0E8C6FA0DD11
:10300000892FFBD792968996CBD7180E896FE10E40
:103010008C6F96DD892FFBD7E9EF18F0F86AD09E08
:10302000078EEA6AE96A226A276A7C6B816BB88636
:10303000E10EAF6E040EB06EA60EAC6E900EAB6ECF
:10304000826BC150C00B0F09C16E070EB46E1E6AB1
:10305000040E1F6E0E0E206E070E926E030E966EFD
:10306000C150C00B0D09C16EC080C082C084C09E1B
:10307000C2807AD53AD67ED6929A899A92968996C5
:1030800002DE860EF66E2A0EF76EADDE0C0E896F2E
:10309000FA0E8C6F55DD892FFBD7F5DD030E8C6F93
:1030A000010E8D6F6CDE980EF66E2A0EF76E9BDEAB
:1030B000928480B401D0FCD7E6DDA60EF66E2A0E0F
:1030C000F76E91DEA0D6A1D6040E896FFA0E8C6F32
:1030D00037DD892FFBD7D7DD896B8935006E003648
:1030E000FC0E0016C250C30B0010C26EC282C2B2E8
:1030F000FED7C4CF89F089C001F001C083F0010E72
:10310000896F8935006E0036FC0E0016C250C30B65
:103110000010C26EC282C2B2FED7C4CF89F089C08D
:1031200001F001C084F08351500803E3845150083A
:1031300003E2929A898A02D0929A899AC80EF66E10
:103140002A0EF76E50DE010E8C6F020E8D6F17DEA9
:10315000DA0EF66E2A0EF76E46DE968284A205D04F
:10316000968084A002D068D635D0968284B218D0DA
:103170008ADD030E8C6F010E8D6F01DEEC0EF66E94
:103180002A0EF76E30DE030E8C6F020E8D6FF7DDA8
:10319000F80EF66E2A0EF76E26DEE4D674DD1AD02F
:1031A000968084B017D06FDD030E8C6F010E8D6F8B
:1031B000E6DD060EF66E2B0EF76E15DE040E8C6F36
:1031C000020E8D6FDCDD120EF66E2B0EF76E0BDE2F
:0831D00011D759DD81D703007E
:020000040030CA
:0E00000020C23E1E0087A1000FC00FE00F407F
:00000001FF
;PIC18F4550
;CRC=BD60  CREATED="25-may.-22 20:32"
