:020000040000FA
:041800004FEF16F0A0
:08180800056ED8CF06F0E0CF19
:1018100007F00001E9CF0DF0EACF08F0E1CF09F0C1
:10182000E2CF0AF0D9CF0BF0DACF0CF0F3CF14F0FF
:10183000F4CF15F0FACF16F000C00FF001C010F091
:1018400002C011F003C012F004C013F09DAA2CEFE7
:101850000CF09EBAEAEF13F0A0AA32EF0CF0A1BA96
:10186000B5EF13F00FC000F010C001F011C002F08E
:1018700012C003F013C004F00E8E0DC0E9FF08C0C3
:10188000EAFF09C0E1FF0AC0E2FF0BC0D9FF0CC0AC
:10189000DAFF14C0F3FF15C0F4FF16C0FAFF0550BD
:1018A00007C0E0FF06C0D8FF1000F76ABA0FF66E57
:1018B000180EF7220900F550120004030100000081
:1018C00000000000000000000000F76ADA0FF66E6A
:1018D000180EF7220900F550120004000100000064
:1018E00000000000000000000000F76AFA0FF66E2A
:1018F000180EF7220900F5501200400008004000C1
:1019000000000000000000000000000000000000D7
:10191000000000000000000000000DAE03D0F2CF78
:101920000EF0F29EF76A3C0FF66E190EF7220900D0
:10193000F5500DAE02D00EBEF28E12004000000037
:101940004000000000000000000000000000000057
:10195000000000000000000000000000F76A6C0FAB
:10196000F66E190EF7220900F55012000902430025
:10197000020100C032090400000102020100052436
:1019800000100104240202052406000105240100C0
:1019900001070581030800FA09040100020A00009A
:1019A00000070502024000FA070582024000FA0023
:1019B000F76AC00FF66E190EF7220900F5501200F3
:1019C0000200F76AD20FF66E190EF7220900F550E1
:1019D00012001201100102000040D80401000001B1
:1019E00001020001F76AF40FF66E190EF7220900E2
:1019F000F5501200040309040A0341005500520087
:101A000045002803410075007200650042006F0028
:101A100061007200640020005500730062002D0018
:101A200053006500720069006500F2CF0EF0F29E6F
:101A3000F76A440FF66E1A0EF7220900F5500EBE33
:101A4000F28E12000D0A41555245424F540D0A5F65
:101A50005F5F5F5F5F5F0D0A0D0A496E69636961D1
:101A60006E646F2E2E2E0D0A0000F2CF0EF0F29E45
:101A7000F76A840FF66E1A0EF7220900F5500EBEB3
:101A8000F28E12005B44656C617920333030206D3A
:101A9000735D0D0A0000F2CF0EF0F29EF76AB00FF0
:101AA000F66E1A0EF7220900F5500EBEF28E1200E5
:101AB0005B4F6B5D0D0A0000F2CF0EF0F29EF76AED
:101AC000D20FF66E1A0EF7220900F5500EBEF28EF6
:101AD00012002D4C65642056657264650D0A000085
:101AE000F2CF0EF0F29EF76AFA0FF66E1A0EF72298
:101AF0000900F5500EBEF28E12002D5553422043C0
:101B000044430D0A0000F2CF0EF0F29EF76A200F58
:101B1000F66E1B0EF7220900F5500EBEF28E120073
:101B20002D50756C6C2075702773204F46460D0A3A
:101B30000000F2CF0EF0F29EF76A4C0FF66E1B0E0D
:101B4000F7220900F5500EBEF28E12002D496E7478
:101B5000657272757063696F6E2053455249450D09
:101B60000A00F2CF0EF0F29EF76A7C0FF66E1B0EA3
:101B7000F7220900F5500EBEF28E12002D496E7448
:101B8000657272757063696F6E657320676C6F62E2
:101B9000616C65730D0A0000F2CF0EF0F29EF76AD9
:101BA000B20FF66E1B0EF7220900F5500EBEF28E34
:101BB0001200A14C69737461210D0A0D0A00F2CF65
:101BC0000EF0F29EF76AD80FF66E1B0EF722090090
:101BD000F5500EBEF28E1200280C01066D9269942B
:101BE0006894C0EF13F06A6A6892C9EF13F02D6A27
:101BF0002C6A250E2B6E800E2A6E2E6A2F6A080E16
:101C0000306E806B7B93326A316A7C6B7D917B8115
:101C1000000C9C6B9C5101080AE3036A9C51280F3D
:101C2000E96E000E0320EA6EEF6A9C2BF3D7DFDF2C
:101C30001A6A010E1B6E196A000C010EA56FA551E0
:101C40000F080EE3700EA525016E0F0E036ED8B0BF
:101C5000032A01C0E9FF03C0EAFFEF6AA52BEFD713
:101C60001E6A1D6A000C400E0401016F050E036F11
:101C7000026B880E006F046B050E076F400E066F37
:101C80000001000C6A6A686A9F0E6B6E390E696EFD
:101C90006E6ABFDFD2DF160E706E68A602D068963D
:101CA000FCD76D98E0DF030E1F6ECFEF13F0698451
:101CB00068986D82D5EF13F0689CDBEF13F070A08D
:101CC00002D0D1DF7090689AE1EF13F0A0C020F04D
:101CD000000CFF0E206E000C9E6B275235E09E51CB
:101CE0003F0832E31C5005E0020A0DE0010A15E04E
:101CF0001ED0036A2650F2CFA0F0F29E2FDEA0BFC6
:101D0000F28E9F6F14D0036A2650F2CFA0F0F29E9D
:101D100069DEA0BFF28E9F6F0AD0036A2650F2CF11
:101D2000A0F0F29E4EDEA0BFF28E9F6F00D0262A5A
:101D300027069E519E2B036A400FE96E050E032075
:101D4000EA6E9FC0EFFFC9D7275204E19E514008B9
:101D500001E0196A9EC0A0F0B9DF000C266A1C6A77
:101D600005010351010A000105E0030A08E0010A28
:101D700009E01FD0120E276E030E1C6E1CD0430EFE
:101D8000276E19D0020E1C6E036A05010251210F45
:101D9000E96E000E0320EA6EEFCF26F0036A2650AC
:101DA000F2CF9DF0F29E00011DDE9DBFF28E276EE8
:101DB00002D08FDF0CD00501075305E12750065DE7
:101DC00002E206C527F0010E196E000185DF01EF62
:101DD00010F09D5304E1040E1F6E2FDFC1D0050EDD
:101DE0001F6EA06F800E9F6F010E9E6F9E510F0899
:101DF000D8A0B6D0A16B036A9E51F2CFA5F0F29E97
:101E000064DDA5BFF28E000A51E0040EA16FD890E8
:101E10009E35036AF2CFA5F0F29E7FDD0900F5CF73
:101E200003F0A5BFF28EA26F03C0A3F09E51080D70
:101E3000F350010F016E040E036ED8B0032A01C0E7
:101E4000E9FF03C0EAFFA2C0EFFF9E51080DF35067
:101E5000020F016E040E036ED8B0032A01C0E9FF21
:101E600003C0EAFFA0C0ECFFED529FC0EFFFD89087
:101E70009E35036AF2CFA5F0F29E4FDD0900F5CF43
:101E800003F0A5BFF28E9F270350A023880EA46FF6
:101E9000A3B1A481A3B3A4839E51080DF3CF01F095
:101EA000040E01C0E9FFEA6EA4C0EFFF036A9E5171
:101EB000F2CFA5F0F29EF9DCA5BFF28E000A31E068
:101EC000A1839E51080DF350060F016E040E036EA0
:101ED000D8B0032A01C0E9FF03C0EAFFA0C0ECFFAD
:101EE000ED529FC0EFFFD8909E35036AF2CFA5F068
:101EF000F29EFBDC0900F5CF03F0A5BFF28E9F2711
:101F00000350A0239E51080DF350040F016E040EE0
:101F1000036ED8B0032A01C0E9FF03C0EAFF400EF8
:101F2000EF6EA151060802E10E0EA16F036A9E51E9
:101F3000F2CFA5F0F29EB9DCA5BFF28E020801E057
:101F4000A189700E9E25016E0F0E036ED8B0032A74
:101F500001C0E9FF03C0EAFFA1C0EFFF9E2B46D7F7
:101F6000FBEF0FF00501015100010DE0010A14E043
:101F7000020A1EE0060A27E0030A2CE00E0A2BE004
:101F8000010A2FE03CD01BC040F50501416B020E59
:101F90000001A06F9BDE35D00501022D06D0010E99
:101FA0001B160001A06B92DE02D0000192DE29D048
:101FB0000501022D05D01B820001A06B87DE02D037
:101FC000000187DE1ED0020E196E02C524F0A06B40
:101FD0007DDE17D0C3D61AC040F5010EA06F76DEA5
:101FE00010D005010251010808E302C51AF002C52C
:101FF0009DF00001EED6A06B69DE000102D069DE23
:1020000000D07BEF11F01AC09DF0050101510001D5
:1020100005E00A0A0BE0010A2BE03CD00501406B09
:10202000416B020E0001A06F51DE36D09D531EE0C1
:10203000010E9D5D036AF2CF9FF0F29EB9DC9FBF57
:10204000F28E016E0501045DD8A002D000010ED011
:10205000036A0451280FE96E000E0320EA6EEFCFE9
:1020600040F5010E0001A06F31DE01D032DE14D048
:102070009D530EE0036A05010451280FE96E000E1E
:102080000320EA6E02C5EFFF0001A06B1FDE01D046
:1020900020DE02D01EDE00D07BEF11F09E919DBFAE
:1020A0009E819D9F9EA111D0036A9D51F2CF9FF00A
:1020B000F29E55EC0CF09FBFF28E000A02E1000E7A
:1020C00001D0010E016E11D010D0036A9D51F2CFE4
:1020D0009FF0F29E65EC0CF09FBFF28E000A02E1C9
:1020E000000E01D0010E016E00D0E7EF10F09E91BE
:1020F0009DBF9E819D9F9EA110D09D51080DF350C4
:10210000040F016E040E036ED8B0032A01C0E9FF6C
:1021100003C0EAFF880EEF6E09D09D51080DF3CF82
:1021200001F0040E01C0E9FFEA6EEF6AF6EF10F06D
:102130009E919DBF9E819D9F9EA110D09D51080D97
:10214000F350040F016E040E036ED8B0032A01C0D1
:10215000E9FF03C0EAFF840EEF6E0AD09D51080D1F
:10216000F3CF01F0040E01C0E9FFEA6E840EEF6EBA
:10217000FCEF10F09E919DBF9E819D9F9EA110D06F
:102180009D51080DF350040F016E040E036ED8B07C
:10219000032A01C0E9FF03C0EAFFEFCF9FF00AD096
:1021A0009D51080DF3CF01F0040E01C0E9FFEA6E66
:1021B000EFCF9FF09FAF02D09FB502D0000E01D0AD
:1021C000010E016E06EF11F004C59DF067D70152B4
:1021D00029E005010151010A000105E0020A09E0B8
:1021E000030A0DE01DD004C59DF081D7A06B6EDD04
:1021F00019D004C59DF09CD7A06B68DD13D00501F4
:10220000406B416B04C59DF00001B4D7015204E05E
:10221000010E0501406F0001020EA06F57DD02D0D4
:1022200058DD00D07BEF11F0FE0E206E000C050192
:10223000042D01D002D0045348E1015100010BE00C
:10224000010A0DE0210A1CE0010A1FE0030A2EE04A
:10225000010A31E037D0010E816FE6DF35D0050E7F
:10226000EA6E400EE96EE26A330EE16E080E016E10
:10227000E6CFEEFF012EFCD706C5A0F027DD24D067
:10228000020E816F7B83D0DF1FD0050EEA6E400EF9
:10229000E96EE26A2A0EE16E070E016EE6CFEEFFEE
:1022A000012EFCD7070EA06F11DD0ED002C580F005
:1022B000A06B0CDD09D002C532F003C531F0A06B74
:1022C00005DD02D006DD00D0050100017BEF11F035
:1022D000196A050100517F0B000107E0010A06E0C1
:1022E000030A05E0230A04E004D03CD68CD66CD760
:1022F0009ED7EFDC00D060EF13F09D51080DF3CFB7
:1023000001F0040E01C0E9FFEA6EEFCF9FF09E518D
:10231000020806E19FAD02D09E6B02D0010E9E6FB7
:102320009E51030812E1840E9F6F9D51080DF350DA
:10233000040F016E040E036ED8B0032A01C0E9FF3A
:1023400003C0EAFF840EEF6E09D09E2D03D0C80EA5
:102350009F6F04D09E5302E1880E9F6F036A010EA7
:10236000026E9D51006E05E0D89002360336002EB5
:10237000FBD70250FF0A006EFF0E031A00501D1615
:1023800003501E16D8909D35036AF2CFA2F0F29E3C
:102390008DEC0CF00900F5CF03F0A2BFF28EA06F18
:1023A00003C0A1F09D51080DF350010F016E040E02
:1023B000036ED8B0032A01C0E9FF03C0EAFFA0C042
:1023C000EFFFA1B19F81A1B39F839D51080DF3CF72
:1023D00001F0040E01C0E9FFEA6E9FC0EFFF000CA0
:1023E000A951080DF350040F016E040E036ED8B00E
:1023F000032A01C0E9FF03C0EAFFEFCFADF0ADBF94
:102400005BD0A951080DF350050F016E040E036E49
:10241000D8B0032A01C0E9FF03C0EAFFAAC0EFFF5A
:10242000AC51020816E1A951080DF350040F016EDA
:10243000040E036ED8B0032A01C0E9FF03C0EAFF0F
:10244000EFCFADF0ADAD02D0AC6B02D0010EAC6FF2
:1024500013D0AC51040810E1A951080DF3CF01F0DD
:10246000040E01C0E9FFEA6EEFCFADF0ADAD03D0D1
:10247000010EAC6F01D0AC6BAC2D03D0C80EAD6FAC
:1024800004D0AC5302E1880EAD6FABB1AD81ABB3FC
:10249000AD83A951080DF350040F016E040E036EB5
:1024A000D8B0032A01C0E9FF03C0EAFFADC0EFFFC7
:1024B000010E016E03D000D0000E016E000C8151A0
:1024C000010A03E0030A12E022D0EA6A330EE96E41
:1024D000050EE26EE16A080E016EE6CFEEFF012EF8
:1024E000FCD7A06B66EC0EF0816B15D0EA6A2A0E61
:1024F000E96E050EE26EE16A070E016EE6CFEEFFB1
:10250000012EFCD7816BA06B66EC0EF004D0816BC2
:1025100033EC0EF000D0ADEF12F09E51080DF350E9
:10252000010F016E040E036ED8B0032A01C0E9FF4B
:1025300003C0EAFF036AEFCF01F003C002F0A6EF89
:1025400012F07D817F6B020E9E6FE7D701C07EF097
:10255000B2EF12F09D5302E1B2D714D09D510208A0
:1025600002E1EFD70FD0036A010E026E9D51006E9B
:1025700005E0D89002360336002EFBD702501D121C
:1025800003501E12000C9EC06EFF9E5303E0040E0B
:102590001F6E02D0020E1F6ED3EF12F01A6A196A74
:1025A00024C09EF0F0D74AEF13F09E51080DF3506F
:1025B000040F016E040E036ED8B0032A01C0E9FFB8
:1025C00003C0EAFFEFCFA6F0A6BF3FD09E51080D93
:1025D000F350060F016E040E036ED8B0032A01C03B
:1025E000E9FF03C0EAFFECCF03F0ED52EFCFA7F015
:1025F00003C0A8F0A56BA46BA551A25D1AE303E18B
:10260000A151A45D16E29FC0E9FFA0C0EAFFEFCF91
:10261000ABF0A8C0EAFFA7C0E9FFABC0EFFFA72B54
:10262000D8B4A82B9F2BD8B4A02BA42BD8B4A52BFF
:10263000E3D79EC0A9F0A2C0ABF0A1C0AAF0A3C08E
:10264000ACF0CEDE015003D000D0000E016E000CC5
:102650007C530DE07B91020E9E6FA06B3B0E9F6F33
:10266000A26B7CC0A1F0020EA36F9FDF7C6B000CFD
:102670007C5302E0EDDF01D07B814FEF13F09D53DF
:102680000AE1192C03D06CEC0EF004D019500208AA
:1026900001E184D704D09D51020801E1E9D7000C83
:1026A0006C309C6F9C339C331F0E9C176C523BE12B
:1026B000040100513C0B34081BE1046B000108D6F7
:1026C000203C05D09D6B030E9E6F17DE0ED09D6BD8
:1026D000020E9E6F12DE2050FE0807E0A96BAB6B66
:1026E00020C0AAF0040EAC6F7BDE6D9819D00401F7
:1026F00000513C0B040815E100019D6B2BDF9D6B25
:10270000020E9E6FFADD2050FE080AE0203C01D048
:1027100007D0A96BAB6B20C0AAF0010EAC6F60DED6
:10272000040120D000016C50040812E1FF0E206E5D
:102730009D6BA5DF203C01D008D0A96BAB6B20C0FE
:10274000AAF0020EAC6F4CDE02D033EC0EF009D0D2
:102750006CB404D09CC09DF0FDDE03D09CC09DF005
:102760008EDF04010001E6EF13F01F5201E12FD0CC
:1027700068522DE068A404D069A402D0EEEF0DF0F9
:102780006DA201D024D068A204D069A202D0F3EFD8
:102790000DF068A004D069A002D042EF0EF068A846
:1027A00004D069A802D057EF0EF068AC04D069AC31
:1027B00002D05CEF0EF068AA04D069AA02D05FEFE5
:1027C0000EF068A604D069A602D06AD76896A19ACE
:1027D00032EF0CF09EAAFED7AECF9CF09C530BE0DC
:1027E0009C3D01D008D094948B749CC082F09C5185
:1027F0001B08D8B4FF009E9A32EF0CF0EA6A890EEB
:10280000E96EEF500EE00F0E016E006A002EFED74B
:10281000012EFBD78F0E006E002EFED70000EF2E8C
:10282000F2D7000C876B886B885115EC0DF0882B64
:10283000006E00509EA8FED7AD6E240E885DF4E1B8
:10284000886B885135EC0DF0882B006E00509EA8E7
:10285000FED7AD6E100E885DF4E1020E886F960E05
:10286000896FCCDF882FFBD7886B88514BEC0DF03C
:10287000882B006E00509EA8FED7AD6E060E885DB8
:10288000F4E1876B8751090807E394948B74320E47
:10289000896FB4DF872BF6D7886B88515CEC0DF01D
:1028A000882B006E00509EA8FED7AD6E0C0E885D82
:1028B000F4E1886B885170EC0DF0882B006E0050AD
:1028C0009EA8FED7AD6E0A0E885DF4E1F18E886B8E
:1028D000885183EC0DF0882B006E00509EA8FED727
:1028E000AD6E100E885DF4E1C150C00B0F09C16ED2
:1028F0009D8A886B885199EC0DF0882B006E0050F2
:102900009EA8FED7AD6E150E885DF4E1C00EF212E2
:10291000886B8851B1EC0DF0882B006E00509EA89A
:10292000FED7AD6E1A0E885DF4E1886B8851CCEC51
:102930000DF0882B006E00509EA8FED7AD6E0B0EDA
:10294000885DF4E16EEF16F08EB102D08A9A01D064
:102950008A8A939A8EB302D08A9801D08A889398F3
:102960008EB502D08A9601D08A8693968EB702D011
:102970008A9401D08A849394030E006E002EFED7B1
:1029800000D0939C8A8C070E006E002EFED700D0DC
:10299000939C8A9C000C939E8A9EEF0E006E002EE4
:1029A000FED700D08B5303E0939E8A8E02D0939E75
:1029B0008A9E0000939C8A9C8C398D6F0F0E8D1718
:1029C0008DC08EF0C1DF8C510F0B8D6F8E6FBCDF11
:1029D000000C939E8A9E939C8A9C0F0E896F0EDF3B
:1029E000876B8751020808E3030E8E6FADDF050E7B
:1029F000896F04DF872BF5D7020E8E6FA5DF876BFB
:102A00008751030812E3036A8751F2CF88F0F29EE0
:102A1000DFEC0DF088BFF28E896F8B6B8C6FBBDFA4
:102A2000050E896FEBDE872BEBD722EF15F0D890E0
:102A300087350C0988118A6F8B6B8C6FACDF25EFA3
:102A400015F0C7D7876B886BF2D76FEF16F06D6AFA
:102A5000696A080E6F6E94503009946E1F6A186A86
:102A6000F2BE188EF29E09EC0EF018BEF28E1E6AAF
:102A70001D6A5EEF15F0186AF2BE188EF29E09EC20
:102A80000EF018BEF28E6D6A140E6F6E696A6D8656
:102A9000010E1F6E4FEF15F06DB601D0ECD71F2C55
:102AA0000BD06DBA09D0686A696AA08AC00EF212AA
:102AB000110E696E020E1F6E000CC9D7EDDF1F509C
:102AC0000208FCE167EF15F0F7EC0DF0F6D770EFB8
:102AD00016F07BA305D01A5203E0010E016E02D05E
:102AE000000E016E7FEF16F07DB101D0FDD77F5152
:102AF0007F2B036A880FE96E050E0320EA6EEFCF85
:102B000088F07E517F5D0CE37D91186AF2BE188ECD
:102B1000F29E020E9D6F9E6F7DEC11F018BEF28E3C
:102B200088C001F095EF15F0DFD701C087F087531B
:102B30000BE0873D01D008D094948B7487C082F05D
:102B400087511B08D8B4FF004BEF16F08C9C959C66
:102B50008C8E959E8C9895988C8A959A000C8C8C6E
:102B6000959C8C9E959E8C8895988C9A959A000C35
:102B70008C8C959C8C9E959E8C9895988C8A959A19
:102B8000000C8C9C959C8C8E959E8C8895988C9A2C
:102B9000959A000C8C9C959C8C9E959E8C989598F3
:102BA0008C9A959A000C8991F2BE8981F29E7C5193
:102BB0003F0802E23F0E7C6F7C517C2B036A3B0F87
:102BC000E96E000E0320EA6E88C0EFFFF29E89B125
:102BD000F28E7BA107D0186AF2BE188EF29E38DD05
:102BE00018BEF28E04EF16F07C513F080AE27BA17A
:102BF00007D0186AF2BE188EF29E2ADD18BEF28E39
:102C0000F3D787C088F0CFD7000C94948B7482518F
:102C1000770A13E0200A13E0240A13E0200A13E0E5
:102C2000370A13E0200A13E0250A13E0200A13E014
:102C3000300A13E0200A13E014D088DF25D086DFA5
:102C400023D08DDF21D08BDF1FD092DF1DD090DF0E
:102C50001BD097DF19D095DF17D09CDF15D09ADFF6
:102C600013D04E0E876FC0DF520E876FBDDF3A0E56
:102C7000876FBADF82C087F0B7DF0D0E876FB4DFD2
:102C80000A0E876FB1DF00D0826B4EEF16F004DFC3
:102C90007DA104D049D7825301E0B7D7000CF86A70
:102CA000D09E0D8EEA6AE96AB886E10EAF6E040E18
:102CB000B06EA60EAC6E900EAB6EC150C00B0F097D
:102CC000C16E070EB46E1F6A216A040E226E0E0ECC
:102CD000236E276A7C6B816B826BA4D5B2D6F4D647
:102CE000836B835131080AE3640E896F87DD928814
:102CF00080A802D0640E836F832BF3D7EAD6012C11
:102D000009D0928880B802D0C2DFFBD7C0DFBFDF16
:102D1000FED731D0928880B801D0FCD717DF280EBB
:102D2000876FFA0E896F6ADD872FFBD733DF20DFCD
:102D3000040E876FFA0E896F61DD872FFBD72ADFBC
:102D400005DF080E876FFA0E896F58DD872FFBD7D6
:102D500021DF17DF040E876FFA0E896F4FDD872F93
:102D6000FBD718DFF3DE200E876FFA0E896F46DD82
:0C2D7000872FFBD70FDF90DEFED703009B
:020000040030CA
:0E00000020C23E1E008381000FC00FE00F40A3
:00000001FF
;PIC18F4550
